{
  "contractName": "Land",
  "abi": [
    {
      "inputs": [
        {
          "internalType": "string",
          "name": "_name",
          "type": "string"
        },
        {
          "internalType": "string",
          "name": "_symbol",
          "type": "string"
        },
        {
          "internalType": "uint256",
          "name": "_cost",
          "type": "uint256"
        }
      ],
      "stateMutability": "nonpayable",
      "type": "constructor"
    },
    {
      "anonymous": false,
      "inputs": [
        {
          "indexed": true,
          "internalType": "address",
          "name": "owner",
          "type": "address"
        },
        {
          "indexed": true,
          "internalType": "address",
          "name": "approved",
          "type": "address"
        },
        {
          "indexed": true,
          "internalType": "uint256",
          "name": "tokenId",
          "type": "uint256"
        }
      ],
      "name": "Approval",
      "type": "event"
    },
    {
      "anonymous": false,
      "inputs": [
        {
          "indexed": true,
          "internalType": "address",
          "name": "owner",
          "type": "address"
        },
        {
          "indexed": true,
          "internalType": "address",
          "name": "operator",
          "type": "address"
        },
        {
          "indexed": false,
          "internalType": "bool",
          "name": "approved",
          "type": "bool"
        }
      ],
      "name": "ApprovalForAll",
      "type": "event"
    },
    {
      "anonymous": false,
      "inputs": [
        {
          "indexed": true,
          "internalType": "address",
          "name": "from",
          "type": "address"
        },
        {
          "indexed": true,
          "internalType": "address",
          "name": "to",
          "type": "address"
        },
        {
          "indexed": true,
          "internalType": "uint256",
          "name": "tokenId",
          "type": "uint256"
        }
      ],
      "name": "Transfer",
      "type": "event"
    },
    {
      "inputs": [
        {
          "internalType": "address",
          "name": "to",
          "type": "address"
        },
        {
          "internalType": "uint256",
          "name": "tokenId",
          "type": "uint256"
        }
      ],
      "name": "approve",
      "outputs": [],
      "stateMutability": "nonpayable",
      "type": "function"
    },
    {
      "inputs": [
        {
          "internalType": "address",
          "name": "owner",
          "type": "address"
        }
      ],
      "name": "balanceOf",
      "outputs": [
        {
          "internalType": "uint256",
          "name": "",
          "type": "uint256"
        }
      ],
      "stateMutability": "view",
      "type": "function",
      "constant": true
    },
    {
      "inputs": [
        {
          "internalType": "uint256",
          "name": "",
          "type": "uint256"
        }
      ],
      "name": "buildings",
      "outputs": [
        {
          "internalType": "string",
          "name": "name",
          "type": "string"
        },
        {
          "internalType": "address",
          "name": "owner",
          "type": "address"
        },
        {
          "internalType": "int256",
          "name": "posX",
          "type": "int256"
        },
        {
          "internalType": "int256",
          "name": "posY",
          "type": "int256"
        },
        {
          "internalType": "int256",
          "name": "posZ",
          "type": "int256"
        },
        {
          "internalType": "uint256",
          "name": "sizeX",
          "type": "uint256"
        },
        {
          "internalType": "uint256",
          "name": "sizeY",
          "type": "uint256"
        },
        {
          "internalType": "uint256",
          "name": "sizeZ",
          "type": "uint256"
        }
      ],
      "stateMutability": "view",
      "type": "function",
      "constant": true
    },
    {
      "inputs": [],
      "name": "cost",
      "outputs": [
        {
          "internalType": "uint256",
          "name": "",
          "type": "uint256"
        }
      ],
      "stateMutability": "view",
      "type": "function",
      "constant": true
    },
    {
      "inputs": [
        {
          "internalType": "uint256",
          "name": "tokenId",
          "type": "uint256"
        }
      ],
      "name": "getApproved",
      "outputs": [
        {
          "internalType": "address",
          "name": "",
          "type": "address"
        }
      ],
      "stateMutability": "view",
      "type": "function",
      "constant": true
    },
    {
      "inputs": [
        {
          "internalType": "address",
          "name": "owner",
          "type": "address"
        },
        {
          "internalType": "address",
          "name": "operator",
          "type": "address"
        }
      ],
      "name": "isApprovedForAll",
      "outputs": [
        {
          "internalType": "bool",
          "name": "",
          "type": "bool"
        }
      ],
      "stateMutability": "view",
      "type": "function",
      "constant": true
    },
    {
      "inputs": [],
      "name": "maxSupply",
      "outputs": [
        {
          "internalType": "uint256",
          "name": "",
          "type": "uint256"
        }
      ],
      "stateMutability": "view",
      "type": "function",
      "constant": true
    },
    {
      "inputs": [],
      "name": "name",
      "outputs": [
        {
          "internalType": "string",
          "name": "",
          "type": "string"
        }
      ],
      "stateMutability": "view",
      "type": "function",
      "constant": true
    },
    {
      "inputs": [
        {
          "internalType": "uint256",
          "name": "tokenId",
          "type": "uint256"
        }
      ],
      "name": "ownerOf",
      "outputs": [
        {
          "internalType": "address",
          "name": "",
          "type": "address"
        }
      ],
      "stateMutability": "view",
      "type": "function",
      "constant": true
    },
    {
      "inputs": [
        {
          "internalType": "address",
          "name": "operator",
          "type": "address"
        },
        {
          "internalType": "bool",
          "name": "approved",
          "type": "bool"
        }
      ],
      "name": "setApprovalForAll",
      "outputs": [],
      "stateMutability": "nonpayable",
      "type": "function"
    },
    {
      "inputs": [
        {
          "internalType": "bytes4",
          "name": "interfaceId",
          "type": "bytes4"
        }
      ],
      "name": "supportsInterface",
      "outputs": [
        {
          "internalType": "bool",
          "name": "",
          "type": "bool"
        }
      ],
      "stateMutability": "view",
      "type": "function",
      "constant": true
    },
    {
      "inputs": [],
      "name": "symbol",
      "outputs": [
        {
          "internalType": "string",
          "name": "",
          "type": "string"
        }
      ],
      "stateMutability": "view",
      "type": "function",
      "constant": true
    },
    {
      "inputs": [
        {
          "internalType": "uint256",
          "name": "tokenId",
          "type": "uint256"
        }
      ],
      "name": "tokenURI",
      "outputs": [
        {
          "internalType": "string",
          "name": "",
          "type": "string"
        }
      ],
      "stateMutability": "view",
      "type": "function",
      "constant": true
    },
    {
      "inputs": [],
      "name": "totalSupply",
      "outputs": [
        {
          "internalType": "uint256",
          "name": "",
          "type": "uint256"
        }
      ],
      "stateMutability": "view",
      "type": "function",
      "constant": true
    },
    {
      "inputs": [
        {
          "internalType": "uint256",
          "name": "_id",
          "type": "uint256"
        }
      ],
      "name": "mint",
      "outputs": [],
      "stateMutability": "payable",
      "type": "function",
      "payable": true
    },
    {
      "inputs": [
        {
          "internalType": "address",
          "name": "from",
          "type": "address"
        },
        {
          "internalType": "address",
          "name": "to",
          "type": "address"
        },
        {
          "internalType": "uint256",
          "name": "tokenId",
          "type": "uint256"
        }
      ],
      "name": "transferFrom",
      "outputs": [],
      "stateMutability": "nonpayable",
      "type": "function"
    },
    {
      "inputs": [
        {
          "internalType": "address",
          "name": "from",
          "type": "address"
        },
        {
          "internalType": "address",
          "name": "to",
          "type": "address"
        },
        {
          "internalType": "uint256",
          "name": "tokenId",
          "type": "uint256"
        }
      ],
      "name": "safeTransferFrom",
      "outputs": [],
      "stateMutability": "nonpayable",
      "type": "function"
    },
    {
      "inputs": [
        {
          "internalType": "address",
          "name": "from",
          "type": "address"
        },
        {
          "internalType": "address",
          "name": "to",
          "type": "address"
        },
        {
          "internalType": "uint256",
          "name": "tokenId",
          "type": "uint256"
        },
        {
          "internalType": "bytes",
          "name": "_data",
          "type": "bytes"
        }
      ],
      "name": "safeTransferFrom",
      "outputs": [],
      "stateMutability": "nonpayable",
      "type": "function"
    },
    {
      "inputs": [],
      "name": "getBuildings",
      "outputs": [
        {
          "components": [
            {
              "internalType": "string",
              "name": "name",
              "type": "string"
            },
            {
              "internalType": "address",
              "name": "owner",
              "type": "address"
            },
            {
              "internalType": "int256",
              "name": "posX",
              "type": "int256"
            },
            {
              "internalType": "int256",
              "name": "posY",
              "type": "int256"
            },
            {
              "internalType": "int256",
              "name": "posZ",
              "type": "int256"
            },
            {
              "internalType": "uint256",
              "name": "sizeX",
              "type": "uint256"
            },
            {
              "internalType": "uint256",
              "name": "sizeY",
              "type": "uint256"
            },
            {
              "internalType": "uint256",
              "name": "sizeZ",
              "type": "uint256"
            }
          ],
          "internalType": "struct Land.Building[]",
          "name": "",
          "type": "tuple[]"
        }
      ],
      "stateMutability": "view",
      "type": "function",
      "constant": true
    },
    {
      "inputs": [
        {
          "internalType": "uint256",
          "name": "_id",
          "type": "uint256"
        }
      ],
      "name": "getBuilding",
      "outputs": [
        {
          "components": [
            {
              "internalType": "string",
              "name": "name",
              "type": "string"
            },
            {
              "internalType": "address",
              "name": "owner",
              "type": "address"
            },
            {
              "internalType": "int256",
              "name": "posX",
              "type": "int256"
            },
            {
              "internalType": "int256",
              "name": "posY",
              "type": "int256"
            },
            {
              "internalType": "int256",
              "name": "posZ",
              "type": "int256"
            },
            {
              "internalType": "uint256",
              "name": "sizeX",
              "type": "uint256"
            },
            {
              "internalType": "uint256",
              "name": "sizeY",
              "type": "uint256"
            },
            {
              "internalType": "uint256",
              "name": "sizeZ",
              "type": "uint256"
            }
          ],
          "internalType": "struct Land.Building",
          "name": "",
          "type": "tuple"
        }
      ],
      "stateMutability": "view",
      "type": "function",
      "constant": true
    }
  ],
  "bytecode": "0x6080604052670de0b6b3a7640000600655600560075560006008553480156200002757600080fd5b5060405162003c9838038062003c9883398181016040528101906200004d9190620008d1565b828281600090805190602001906200006792919062000798565b5080600190805190602001906200008092919062000798565b5050508060068190555060096040518061010001604052806040518060400160405280600681526020017f54657374203100000000000000000000000000000000000000000000000000008152508152602001600073ffffffffffffffffffffffffffffffffffffffff168152602001600081526020016000815260200160008152602001600a8152602001600a8152602001600a815250908060018154018082558091505060019003906000526020600020906008020160009091909190915060008201518160000190805190602001906200015f92919062000798565b5060208201518160010160006101000a81548173ffffffffffffffffffffffffffffffffffffffff021916908373ffffffffffffffffffffffffffffffffffffffff16021790555060408201518160020155606082015181600301556080820151816004015560a0820151816005015560c0820151816006015560e08201518160070155505060096040518061010001604052806040518060400160405280600681526020017f54657374203200000000000000000000000000000000000000000000000000008152508152602001600073ffffffffffffffffffffffffffffffffffffffff16815260200160008152602001600a815260200160008152602001600a815260200160058152602001600381525090806001815401808255809150506001900390600052602060002090600802016000909190919091506000820151816000019080519060200190620002ba92919062000798565b5060208201518160010160006101000a81548173ffffffffffffffffffffffffffffffffffffffff021916908373ffffffffffffffffffffffffffffffffffffffff16021790555060408201518160020155606082015181600301556080820151816004015560a0820151816005015560c0820151816006015560e08201518160070155505060096040518061010001604052806040518060400160405280600681526020017f54657374203300000000000000000000000000000000000000000000000000008152508152602001600073ffffffffffffffffffffffffffffffffffffffff168152602001600081526020017ffffffffffffffffffffffffffffffffffffffffffffffffffffffffffffffff6815260200160008152602001600a8152602001600581526020016003815250908060018154018082558091505060019003906000526020600020906008020160009091909190915060008201518160000190805190602001906200043492919062000798565b5060208201518160010160006101000a81548173ffffffffffffffffffffffffffffffffffffffff021916908373ffffffffffffffffffffffffffffffffffffffff16021790555060408201518160020155606082015181600301556080820151816004015560a0820151816005015560c0820151816006015560e08201518160070155505060096040518061010001604052806040518060400160405280600681526020017f54657374203400000000000000000000000000000000000000000000000000008152508152602001600073ffffffffffffffffffffffffffffffffffffffff168152602001600a8152602001600081526020016000815260200160058152602001601981526020016005815250908060018154018082558091505060019003906000526020600020906008020160009091909190915060008201518160000190805190602001906200058f92919062000798565b5060208201518160010160006101000a81548173ffffffffffffffffffffffffffffffffffffffff021916908373ffffffffffffffffffffffffffffffffffffffff16021790555060408201518160020155606082015181600301556080820151816004015560a0820151816005015560c0820151816006015560e08201518160070155505060096040518061010001604052806040518060400160405280600681526020017f54657374203500000000000000000000000000000000000000000000000000008152508152602001600073ffffffffffffffffffffffffffffffffffffffff1681526020017ffffffffffffffffffffffffffffffffffffffffffffffffffffffffffffffff68152602001600081526020016000815260200160058152602001601981526020016005815250908060018154018082558091505060019003906000526020600020906008020160009091909190915060008201518160000190805190602001906200070992919062000798565b5060208201518160010160006101000a81548173ffffffffffffffffffffffffffffffffffffffff021916908373ffffffffffffffffffffffffffffffffffffffff16021790555060408201518160020155606082015181600301556080820151816004015560a0820151816005015560c0820151816006015560e08201518160070155505050505062000aed565b828054620007a690620009f8565b90600052602060002090601f016020900481019282620007ca576000855562000816565b82601f10620007e557805160ff191683800117855562000816565b8280016001018555821562000816579182015b8281111562000815578251825591602001919060010190620007f8565b5b50905062000825919062000829565b5090565b5b80821115620008445760008160009055506001016200082a565b5090565b60006200085f620008598462000982565b62000959565b9050828152602081018484840111156200087857600080fd5b62000885848285620009c2565b509392505050565b600082601f8301126200089f57600080fd5b8151620008b184826020860162000848565b91505092915050565b600081519050620008cb8162000ad3565b92915050565b600080600060608486031215620008e757600080fd5b600084015167ffffffffffffffff8111156200090257600080fd5b62000910868287016200088d565b935050602084015167ffffffffffffffff8111156200092e57600080fd5b6200093c868287016200088d565b92505060406200094f86828701620008ba565b9150509250925092565b60006200096562000978565b905062000973828262000a2e565b919050565b6000604051905090565b600067ffffffffffffffff821115620009a0576200099f62000a93565b5b620009ab8262000ac2565b9050602081019050919050565b6000819050919050565b60005b83811015620009e2578082015181840152602081019050620009c5565b83811115620009f2576000848401525b50505050565b6000600282049050600182168062000a1157607f821691505b6020821081141562000a285762000a2762000a64565b5b50919050565b62000a398262000ac2565b810181811067ffffffffffffffff8211171562000a5b5762000a5a62000a93565b5b80604052505050565b7f4e487b7100000000000000000000000000000000000000000000000000000000600052602260045260246000fd5b7f4e487b7100000000000000000000000000000000000000000000000000000000600052604160045260246000fd5b6000601f19601f8301169050919050565b62000ade81620009b8565b811462000aea57600080fd5b50565b61319b8062000afd6000396000f3fe60806040526004361061011f5760003560e01c806370a08231116100a0578063b88d4fde11610064578063b88d4fde14610405578063c87b56dd1461042e578063d5abeb011461046b578063d9cf6a2614610496578063e985e9c5146104c15761011f565b806370a082311461031b57806395d89b41146103585780639dfd8b0214610383578063a0712d68146103c0578063a22cb465146103dc5761011f565b806318160ddd116100e757806318160ddd1461021d57806323b872dd1461024857806342842e0e146102715780634c96a0621461029a5780636352211e146102de5761011f565b806301ffc9a71461012457806306fdde0314610161578063081812fc1461018c578063095ea7b3146101c957806313faede6146101f2575b600080fd5b34801561013057600080fd5b5061014b600480360381019061014691906121fe565b6104fe565b60405161015891906127d5565b60405180910390f35b34801561016d57600080fd5b506101766105e0565b60405161018391906127f0565b60405180910390f35b34801561019857600080fd5b506101b360048036038101906101ae9190612250565b610672565b6040516101c0919061274c565b60405180910390f35b3480156101d557600080fd5b506101f060048036038101906101eb91906121c2565b6106b8565b005b3480156101fe57600080fd5b506102076107d0565b6040516102149190612a19565b60405180910390f35b34801561022957600080fd5b506102326107d6565b60405161023f9190612a19565b60405180910390f35b34801561025457600080fd5b5061026f600480360381019061026a91906120bc565b6107dc565b005b34801561027d57600080fd5b50610298600480360381019061029391906120bc565b6108d2565b005b3480156102a657600080fd5b506102c160048036038101906102bc9190612250565b6108f2565b6040516102d5989796959493929190612812565b60405180910390f35b3480156102ea57600080fd5b5061030560048036038101906103009190612250565b6109f2565b604051610312919061274c565b60405180910390f35b34801561032757600080fd5b50610342600480360381019061033d9190612057565b610aa4565b60405161034f9190612a19565b60405180910390f35b34801561036457600080fd5b5061036d610b5c565b60405161037a91906127f0565b60405180910390f35b34801561038f57600080fd5b506103aa60048036038101906103a59190612250565b610bee565b6040516103b791906129f7565b60405180910390f35b6103da60048036038101906103d59190612250565b610d81565b005b3480156103e857600080fd5b5061040360048036038101906103fe9190612186565b610f15565b005b34801561041157600080fd5b5061042c6004803603810190610427919061210b565b610f2b565b005b34801561043a57600080fd5b5061045560048036038101906104509190612250565b611023565b60405161046291906127f0565b60405180910390f35b34801561047757600080fd5b5061048061108b565b60405161048d9190612a19565b60405180910390f35b3480156104a257600080fd5b506104ab611091565b6040516104b891906127b3565b60405180910390f35b3480156104cd57600080fd5b506104e860048036038101906104e39190612080565b611215565b6040516104f591906127d5565b60405180910390f35b60007f80ac58cd000000000000000000000000000000000000000000000000000000007bffffffffffffffffffffffffffffffffffffffffffffffffffffffff1916827bffffffffffffffffffffffffffffffffffffffffffffffffffffffff191614806105c957507f5b5e139f000000000000000000000000000000000000000000000000000000007bffffffffffffffffffffffffffffffffffffffffffffffffffffffff1916827bffffffffffffffffffffffffffffffffffffffffffffffffffffffff1916145b806105d957506105d8826112a9565b5b9050919050565b6060600080546105ef90612c92565b80601f016020809104026020016040519081016040528092919081815260200182805461061b90612c92565b80156106685780601f1061063d57610100808354040283529160200191610668565b820191906000526020600020905b81548152906001019060200180831161064b57829003601f168201915b5050505050905090565b600061067d82611313565b6004600083815260200190815260200160002060009054906101000a900473ffffffffffffffffffffffffffffffffffffffff169050919050565b60006106c3826109f2565b90508073ffffffffffffffffffffffffffffffffffffffff168373ffffffffffffffffffffffffffffffffffffffff161415610734576040517f08c379a000000000000000000000000000000000000000000000000000000000815260040161072b906129d7565b60405180910390fd5b8073ffffffffffffffffffffffffffffffffffffffff1661075361135e565b73ffffffffffffffffffffffffffffffffffffffff16148061078257506107818161077c61135e565b611215565b5b6107c1576040517f08c379a00000000000000000000000000000000000000000000000000000000081526004016107b890612977565b60405180910390fd5b6107cb8383611366565b505050565b60065481565b60085481565b6107ed6107e761135e565b8261141f565b61082c576040517f08c379a0000000000000000000000000000000000000000000000000000000008152600401610823906128f7565b60405180910390fd5b81600960018361083c9190612b9e565b81548110610873577f4e487b7100000000000000000000000000000000000000000000000000000000600052603260045260246000fd5b906000526020600020906008020160010160006101000a81548173ffffffffffffffffffffffffffffffffffffffff021916908373ffffffffffffffffffffffffffffffffffffffff1602179055506108cd8383836114b4565b505050565b6108ed83838360405180602001604052806000815250610f2b565b505050565b6009818154811061090257600080fd5b906000526020600020906008020160009150905080600001805461092590612c92565b80601f016020809104026020016040519081016040528092919081815260200182805461095190612c92565b801561099e5780601f106109735761010080835404028352916020019161099e565b820191906000526020600020905b81548152906001019060200180831161098157829003601f168201915b5050505050908060010160009054906101000a900473ffffffffffffffffffffffffffffffffffffffff16908060020154908060030154908060040154908060050154908060060154908060070154905088565b6000806002600084815260200190815260200160002060009054906101000a900473ffffffffffffffffffffffffffffffffffffffff169050600073ffffffffffffffffffffffffffffffffffffffff168173ffffffffffffffffffffffffffffffffffffffff161415610a9b576040517f08c379a0000000000000000000000000000000000000000000000000000000008152600401610a92906129b7565b60405180910390fd5b80915050919050565b60008073ffffffffffffffffffffffffffffffffffffffff168273ffffffffffffffffffffffffffffffffffffffff161415610b15576040517f08c379a0000000000000000000000000000000000000000000000000000000008152600401610b0c90612957565b60405180910390fd5b600360008373ffffffffffffffffffffffffffffffffffffffff1673ffffffffffffffffffffffffffffffffffffffff168152602001908152602001600020549050919050565b606060018054610b6b90612c92565b80601f0160208091040260200160405190810160405280929190818152602001828054610b9790612c92565b8015610be45780601f10610bb957610100808354040283529160200191610be4565b820191906000526020600020905b815481529060010190602001808311610bc757829003601f168201915b5050505050905090565b610bf6611f2b565b6009600183610c059190612b9e565b81548110610c3c577f4e487b7100000000000000000000000000000000000000000000000000000000600052603260045260246000fd5b906000526020600020906008020160405180610100016040529081600082018054610c6690612c92565b80601f0160208091040260200160405190810160405280929190818152602001828054610c9290612c92565b8015610cdf5780601f10610cb457610100808354040283529160200191610cdf565b820191906000526020600020905b815481529060010190602001808311610cc257829003601f168201915b505050505081526020016001820160009054906101000a900473ffffffffffffffffffffffffffffffffffffffff1673ffffffffffffffffffffffffffffffffffffffff1673ffffffffffffffffffffffffffffffffffffffff16815260200160028201548152602001600382015481526020016004820154815260200160058201548152602001600682015481526020016007820154815250509050919050565b60006008549050600754811115610d9757600080fd5b600073ffffffffffffffffffffffffffffffffffffffff166009600184610dbe9190612b9e565b81548110610df5577f4e487b7100000000000000000000000000000000000000000000000000000000600052603260045260246000fd5b906000526020600020906008020160010160009054906101000a900473ffffffffffffffffffffffffffffffffffffffff1673ffffffffffffffffffffffffffffffffffffffff1614610e4757600080fd5b670de0b6b3a7640000341015610e5c57600080fd5b336009600184610e6c9190612b9e565b81548110610ea3577f4e487b7100000000000000000000000000000000000000000000000000000000600052603260045260246000fd5b906000526020600020906008020160010160006101000a81548173ffffffffffffffffffffffffffffffffffffffff021916908373ffffffffffffffffffffffffffffffffffffffff1602179055506001600854610f019190612b17565b600881905550610f11338361171b565b5050565b610f27610f2061135e565b8383611739565b5050565b610f3c610f3661135e565b8361141f565b610f7b576040517f08c379a0000000000000000000000000000000000000000000000000000000008152600401610f72906128f7565b60405180910390fd5b826009600184610f8b9190612b9e565b81548110610fc2577f4e487b7100000000000000000000000000000000000000000000000000000000600052603260045260246000fd5b906000526020600020906008020160010160006101000a81548173ffffffffffffffffffffffffffffffffffffffff021916908373ffffffffffffffffffffffffffffffffffffffff16021790555061101d848484846118a6565b50505050565b606061102e82611313565b6000611038611902565b905060008151116110585760405180602001604052806000815250611083565b8061106284611919565b604051602001611073929190612728565b6040516020818303038152906040525b915050919050565b60075481565b60606009805480602002602001604051908101604052809291908181526020016000905b8282101561120c5783829060005260206000209060080201604051806101000160405290816000820180546110e990612c92565b80601f016020809104026020016040519081016040528092919081815260200182805461111590612c92565b80156111625780601f1061113757610100808354040283529160200191611162565b820191906000526020600020905b81548152906001019060200180831161114557829003601f168201915b505050505081526020016001820160009054906101000a900473ffffffffffffffffffffffffffffffffffffffff1673ffffffffffffffffffffffffffffffffffffffff1673ffffffffffffffffffffffffffffffffffffffff1681526020016002820154815260200160038201548152602001600482015481526020016005820154815260200160068201548152602001600782015481525050815260200190600101906110b5565b50505050905090565b6000600560008473ffffffffffffffffffffffffffffffffffffffff1673ffffffffffffffffffffffffffffffffffffffff16815260200190815260200160002060008373ffffffffffffffffffffffffffffffffffffffff1673ffffffffffffffffffffffffffffffffffffffff16815260200190815260200160002060009054906101000a900460ff16905092915050565b60007f01ffc9a7000000000000000000000000000000000000000000000000000000007bffffffffffffffffffffffffffffffffffffffffffffffffffffffff1916827bffffffffffffffffffffffffffffffffffffffffffffffffffffffff1916149050919050565b61131c81611ac6565b61135b576040517f08c379a0000000000000000000000000000000000000000000000000000000008152600401611352906129b7565b60405180910390fd5b50565b600033905090565b816004600083815260200190815260200160002060006101000a81548173ffffffffffffffffffffffffffffffffffffffff021916908373ffffffffffffffffffffffffffffffffffffffff160217905550808273ffffffffffffffffffffffffffffffffffffffff166113d9836109f2565b73ffffffffffffffffffffffffffffffffffffffff167f8c5be1e5ebec7d5bd14f71427d1e84f3dd0314c0f7b2291e5b200ac8c7c3b92560405160405180910390a45050565b60008061142b836109f2565b90508073ffffffffffffffffffffffffffffffffffffffff168473ffffffffffffffffffffffffffffffffffffffff16148061146d575061146c8185611215565b5b806114ab57508373ffffffffffffffffffffffffffffffffffffffff1661149384610672565b73ffffffffffffffffffffffffffffffffffffffff16145b91505092915050565b8273ffffffffffffffffffffffffffffffffffffffff166114d4826109f2565b73ffffffffffffffffffffffffffffffffffffffff161461152a576040517f08c379a0000000000000000000000000000000000000000000000000000000008152600401611521906128b7565b60405180910390fd5b600073ffffffffffffffffffffffffffffffffffffffff168273ffffffffffffffffffffffffffffffffffffffff16141561159a576040517f08c379a000000000000000000000000000000000000000000000000000000000815260040161159190612917565b60405180910390fd5b6115a5838383611b32565b6115b0600082611366565b6001600360008573ffffffffffffffffffffffffffffffffffffffff1673ffffffffffffffffffffffffffffffffffffffff16815260200190815260200160002060008282546116009190612b9e565b925050819055506001600360008473ffffffffffffffffffffffffffffffffffffffff1673ffffffffffffffffffffffffffffffffffffffff16815260200190815260200160002060008282546116579190612b17565b92505081905550816002600083815260200190815260200160002060006101000a81548173ffffffffffffffffffffffffffffffffffffffff021916908373ffffffffffffffffffffffffffffffffffffffff160217905550808273ffffffffffffffffffffffffffffffffffffffff168473ffffffffffffffffffffffffffffffffffffffff167fddf252ad1be2c89b69c2b068fc378daa952ba7f163c4a11628f55a4df523b3ef60405160405180910390a4611716838383611b37565b505050565b611735828260405180602001604052806000815250611b3c565b5050565b8173ffffffffffffffffffffffffffffffffffffffff168373ffffffffffffffffffffffffffffffffffffffff1614156117a8576040517f08c379a000000000000000000000000000000000000000000000000000000000815260040161179f90612937565b60405180910390fd5b80600560008573ffffffffffffffffffffffffffffffffffffffff1673ffffffffffffffffffffffffffffffffffffffff16815260200190815260200160002060008473ffffffffffffffffffffffffffffffffffffffff1673ffffffffffffffffffffffffffffffffffffffff16815260200190815260200160002060006101000a81548160ff0219169083151502179055508173ffffffffffffffffffffffffffffffffffffffff168373ffffffffffffffffffffffffffffffffffffffff167f17307eab39ab6107e8899845ad3d59bd9653f200f220920489ca2b5937696c318360405161189991906127d5565b60405180910390a3505050565b6118b18484846114b4565b6118bd84848484611b97565b6118fc576040517f08c379a00000000000000000000000000000000000000000000000000000000081526004016118f390612897565b60405180910390fd5b50505050565b606060405180602001604052806000815250905090565b60606000821415611961576040518060400160405280600181526020017f30000000000000000000000000000000000000000000000000000000000000008152509050611ac1565b600082905060005b6000821461199357808061197c90612cf5565b915050600a8261198c9190612b6d565b9150611969565b60008167ffffffffffffffff8111156119d5577f4e487b7100000000000000000000000000000000000000000000000000000000600052604160045260246000fd5b6040519080825280601f01601f191660200182016040528015611a075781602001600182028036833780820191505090505b5090505b60008514611aba57600182611a209190612b9e565b9150600a85611a2f9190612d3e565b6030611a3b9190612b17565b60f81b818381518110611a77577f4e487b7100000000000000000000000000000000000000000000000000000000600052603260045260246000fd5b60200101907effffffffffffffffffffffffffffffffffffffffffffffffffffffffffffff1916908160001a905350600a85611ab39190612b6d565b9450611a0b565b8093505050505b919050565b60008073ffffffffffffffffffffffffffffffffffffffff166002600084815260200190815260200160002060009054906101000a900473ffffffffffffffffffffffffffffffffffffffff1673ffffffffffffffffffffffffffffffffffffffff1614159050919050565b505050565b505050565b611b468383611d2e565b611b536000848484611b97565b611b92576040517f08c379a0000000000000000000000000000000000000000000000000000000008152600401611b8990612897565b60405180910390fd5b505050565b6000611bb88473ffffffffffffffffffffffffffffffffffffffff16611f08565b15611d21578373ffffffffffffffffffffffffffffffffffffffff1663150b7a02611be161135e565b8786866040518563ffffffff1660e01b8152600401611c039493929190612767565b602060405180830381600087803b158015611c1d57600080fd5b505af1925050508015611c4e57506040513d601f19601f82011682018060405250810190611c4b9190612227565b60015b611cd1573d8060008114611c7e576040519150601f19603f3d011682016040523d82523d6000602084013e611c83565b606091505b50600081511415611cc9576040517f08c379a0000000000000000000000000000000000000000000000000000000008152600401611cc090612897565b60405180910390fd5b805181602001fd5b63150b7a0260e01b7bffffffffffffffffffffffffffffffffffffffffffffffffffffffff1916817bffffffffffffffffffffffffffffffffffffffffffffffffffffffff191614915050611d26565b600190505b949350505050565b600073ffffffffffffffffffffffffffffffffffffffff168273ffffffffffffffffffffffffffffffffffffffff161415611d9e576040517f08c379a0000000000000000000000000000000000000000000000000000000008152600401611d9590612997565b60405180910390fd5b611da781611ac6565b15611de7576040517f08c379a0000000000000000000000000000000000000000000000000000000008152600401611dde906128d7565b60405180910390fd5b611df360008383611b32565b6001600360008473ffffffffffffffffffffffffffffffffffffffff1673ffffffffffffffffffffffffffffffffffffffff1681526020019081526020016000206000828254611e439190612b17565b92505081905550816002600083815260200190815260200160002060006101000a81548173ffffffffffffffffffffffffffffffffffffffff021916908373ffffffffffffffffffffffffffffffffffffffff160217905550808273ffffffffffffffffffffffffffffffffffffffff16600073ffffffffffffffffffffffffffffffffffffffff167fddf252ad1be2c89b69c2b068fc378daa952ba7f163c4a11628f55a4df523b3ef60405160405180910390a4611f0460008383611b37565b5050565b6000808273ffffffffffffffffffffffffffffffffffffffff163b119050919050565b60405180610100016040528060608152602001600073ffffffffffffffffffffffffffffffffffffffff1681526020016000815260200160008152602001600081526020016000815260200160008152602001600081525090565b6000611f99611f9484612a59565b612a34565b905082815260208101848484011115611fb157600080fd5b611fbc848285612c50565b509392505050565b600081359050611fd381613109565b92915050565b600081359050611fe881613120565b92915050565b600081359050611ffd81613137565b92915050565b60008151905061201281613137565b92915050565b600082601f83011261202957600080fd5b8135612039848260208601611f86565b91505092915050565b6000813590506120518161314e565b92915050565b60006020828403121561206957600080fd5b600061207784828501611fc4565b91505092915050565b6000806040838503121561209357600080fd5b60006120a185828601611fc4565b92505060206120b285828601611fc4565b9150509250929050565b6000806000606084860312156120d157600080fd5b60006120df86828701611fc4565b93505060206120f086828701611fc4565b925050604061210186828701612042565b9150509250925092565b6000806000806080858703121561212157600080fd5b600061212f87828801611fc4565b945050602061214087828801611fc4565b935050604061215187828801612042565b925050606085013567ffffffffffffffff81111561216e57600080fd5b61217a87828801612018565b91505092959194509250565b6000806040838503121561219957600080fd5b60006121a785828601611fc4565b92505060206121b885828601611fd9565b9150509250929050565b600080604083850312156121d557600080fd5b60006121e385828601611fc4565b92505060206121f485828601612042565b9150509250929050565b60006020828403121561221057600080fd5b600061221e84828501611fee565b91505092915050565b60006020828403121561223957600080fd5b600061224784828501612003565b91505092915050565b60006020828403121561226257600080fd5b600061227084828501612042565b91505092915050565b600061228583836125aa565b905092915050565b61229681612bd2565b82525050565b6122a581612bd2565b82525050565b60006122b682612a9a565b6122c08185612ac8565b9350836020820285016122d285612a8a565b8060005b8581101561230e57848403895281516122ef8582612279565b94506122fa83612abb565b925060208a019950506001810190506122d6565b50829750879550505050505092915050565b61232981612be4565b82525050565b600061233a82612aa5565b6123448185612ad9565b9350612354818560208601612c5f565b61235d81612e2b565b840191505092915050565b61237181612c1c565b82525050565b61238081612c1c565b82525050565b600061239182612ab0565b61239b8185612aea565b93506123ab818560208601612c5f565b6123b481612e2b565b840191505092915050565b60006123ca82612ab0565b6123d48185612afb565b93506123e4818560208601612c5f565b6123ed81612e2b565b840191505092915050565b600061240382612ab0565b61240d8185612b0c565b935061241d818560208601612c5f565b80840191505092915050565b6000612436603283612afb565b915061244182612e3c565b604082019050919050565b6000612459602583612afb565b915061246482612e8b565b604082019050919050565b600061247c601c83612afb565b915061248782612eda565b602082019050919050565b600061249f602c83612afb565b91506124aa82612f03565b604082019050919050565b60006124c2602483612afb565b91506124cd82612f52565b604082019050919050565b60006124e5601983612afb565b91506124f082612fa1565b602082019050919050565b6000612508602983612afb565b915061251382612fca565b604082019050919050565b600061252b603e83612afb565b915061253682613019565b604082019050919050565b600061254e602083612afb565b915061255982613068565b602082019050919050565b6000612571601883612afb565b915061257c82613091565b602082019050919050565b6000612594602183612afb565b915061259f826130ba565b604082019050919050565b60006101008301600083015184820360008601526125c88282612386565b91505060208301516125dd602086018261228d565b5060408301516125f06040860182612368565b5060608301516126036060860182612368565b5060808301516126166080860182612368565b5060a083015161262960a086018261270a565b5060c083015161263c60c086018261270a565b5060e083015161264f60e086018261270a565b508091505092915050565b60006101008301600083015184820360008601526126788282612386565b915050602083015161268d602086018261228d565b5060408301516126a06040860182612368565b5060608301516126b36060860182612368565b5060808301516126c66080860182612368565b5060a08301516126d960a086018261270a565b5060c08301516126ec60c086018261270a565b5060e08301516126ff60e086018261270a565b508091505092915050565b61271381612c46565b82525050565b61272281612c46565b82525050565b600061273482856123f8565b915061274082846123f8565b91508190509392505050565b6000602082019050612761600083018461229c565b92915050565b600060808201905061277c600083018761229c565b612789602083018661229c565b6127966040830185612719565b81810360608301526127a8818461232f565b905095945050505050565b600060208201905081810360008301526127cd81846122ab565b905092915050565b60006020820190506127ea6000830184612320565b92915050565b6000602082019050818103600083015261280a81846123bf565b905092915050565b600061010082019050818103600083015261282d818b6123bf565b905061283c602083018a61229c565b6128496040830189612377565b6128566060830188612377565b6128636080830187612377565b61287060a0830186612719565b61287d60c0830185612719565b61288a60e0830184612719565b9998505050505050505050565b600060208201905081810360008301526128b081612429565b9050919050565b600060208201905081810360008301526128d08161244c565b9050919050565b600060208201905081810360008301526128f08161246f565b9050919050565b6000602082019050818103600083015261291081612492565b9050919050565b60006020820190508181036000830152612930816124b5565b9050919050565b60006020820190508181036000830152612950816124d8565b9050919050565b60006020820190508181036000830152612970816124fb565b9050919050565b600060208201905081810360008301526129908161251e565b9050919050565b600060208201905081810360008301526129b081612541565b9050919050565b600060208201905081810360008301526129d081612564565b9050919050565b600060208201905081810360008301526129f081612587565b9050919050565b60006020820190508181036000830152612a11818461265a565b905092915050565b6000602082019050612a2e6000830184612719565b92915050565b6000612a3e612a4f565b9050612a4a8282612cc4565b919050565b6000604051905090565b600067ffffffffffffffff821115612a7457612a73612dfc565b5b612a7d82612e2b565b9050602081019050919050565b6000819050602082019050919050565b600081519050919050565b600081519050919050565b600081519050919050565b6000602082019050919050565b600082825260208201905092915050565b600082825260208201905092915050565b600082825260208201905092915050565b600082825260208201905092915050565b600081905092915050565b6000612b2282612c46565b9150612b2d83612c46565b9250827fffffffffffffffffffffffffffffffffffffffffffffffffffffffffffffffff03821115612b6257612b61612d6f565b5b828201905092915050565b6000612b7882612c46565b9150612b8383612c46565b925082612b9357612b92612d9e565b5b828204905092915050565b6000612ba982612c46565b9150612bb483612c46565b925082821015612bc757612bc6612d6f565b5b828203905092915050565b6000612bdd82612c26565b9050919050565b60008115159050919050565b60007fffffffff0000000000000000000000000000000000000000000000000000000082169050919050565b6000819050919050565b600073ffffffffffffffffffffffffffffffffffffffff82169050919050565b6000819050919050565b82818337600083830152505050565b60005b83811015612c7d578082015181840152602081019050612c62565b83811115612c8c576000848401525b50505050565b60006002820490506001821680612caa57607f821691505b60208210811415612cbe57612cbd612dcd565b5b50919050565b612ccd82612e2b565b810181811067ffffffffffffffff82111715612cec57612ceb612dfc565b5b80604052505050565b6000612d0082612c46565b91507fffffffffffffffffffffffffffffffffffffffffffffffffffffffffffffffff821415612d3357612d32612d6f565b5b600182019050919050565b6000612d4982612c46565b9150612d5483612c46565b925082612d6457612d63612d9e565b5b828206905092915050565b7f4e487b7100000000000000000000000000000000000000000000000000000000600052601160045260246000fd5b7f4e487b7100000000000000000000000000000000000000000000000000000000600052601260045260246000fd5b7f4e487b7100000000000000000000000000000000000000000000000000000000600052602260045260246000fd5b7f4e487b7100000000000000000000000000000000000000000000000000000000600052604160045260246000fd5b6000601f19601f8301169050919050565b7f4552433732313a207472616e7366657220746f206e6f6e20455243373231526560008201527f63656976657220696d706c656d656e7465720000000000000000000000000000602082015250565b7f4552433732313a207472616e736665722066726f6d20696e636f72726563742060008201527f6f776e6572000000000000000000000000000000000000000000000000000000602082015250565b7f4552433732313a20746f6b656e20616c7265616479206d696e74656400000000600082015250565b7f5472616e736665722063616c6c6572206973206e6f74206170706f727665642060008201527f6f72206e6f74206f776e65720000000000000000000000000000000000000000602082015250565b7f4552433732313a207472616e7366657220746f20746865207a65726f2061646460008201527f7265737300000000000000000000000000000000000000000000000000000000602082015250565b7f4552433732313a20617070726f766520746f2063616c6c657200000000000000600082015250565b7f4552433732313a2061646472657373207a65726f206973206e6f74206120766160008201527f6c6964206f776e65720000000000000000000000000000000000000000000000602082015250565b7f4552433732313a20617070726f76652063616c6c6572206973206e6f7420746f60008201527f6b656e206f776e6572206e6f7220617070726f76656420666f7220616c6c0000602082015250565b7f4552433732313a206d696e7420746f20746865207a65726f2061646472657373600082015250565b7f4552433732313a20696e76616c696420746f6b656e2049440000000000000000600082015250565b7f4552433732313a20617070726f76616c20746f2063757272656e74206f776e6560008201527f7200000000000000000000000000000000000000000000000000000000000000602082015250565b61311281612bd2565b811461311d57600080fd5b50565b61312981612be4565b811461313457600080fd5b50565b61314081612bf0565b811461314b57600080fd5b50565b61315781612c46565b811461316257600080fd5b5056fea26469706673582212205ec03539476fecaf22cb2a7697e5d8740300983c3a5ab5dfb899e87febf5612864736f6c63430008020033",
  "immutableReferences": {},
  "source": "// SPDX-License-Identifier: MIT\n\npragma solidity ^0.8.0;\nimport \"@openzeppelin/contracts/token/ERC721/ERC721.sol\";\n\ncontract Land is ERC721{\n \n uint256 public cost = 1 ether;\n uint256 public maxSupply = 5;\n uint256 public totalSupply = 0;\n\n struct Building {\n    string name;\n    address owner;\n    int256 posX;\n    int256 posY;\n    int256 posZ;\n    uint256 sizeX;\n    uint256 sizeY;\n    uint256 sizeZ;\n\n }\n\n Building[] public buildings;\n\n\nconstructor(string memory _name, string memory _symbol, uint256 _cost) ERC721(_name,_symbol){\n   cost = _cost;\n\n   buildings.push(\n    Building(\"Test 1\", address(0x0), 0, 0, 0, 10, 10, 10)\n   );\n   buildings.push(\n    Building(\"Test 2\", address(0x0), 0, 10, 0, 10, 5, 3)\n   );\n   buildings.push(\n    Building(\"Test 3\", address(0x0), 0, -10, 0, 10, 5, 3)\n   );\n   buildings.push(\n    Building(\"Test 4\", address(0x0), 10, 0, 0, 5, 25, 5)\n   );\n   buildings.push(\n    Building(\"Test 5\", address(0x0), -10, 0, 0, 5, 25, 5)\n   );\n\n\n}\n\nfunction mint(uint256 _id) public payable {\n   uint256 supply = totalSupply;\n\n   require(supply <= maxSupply);\n   require(buildings[_id - 1].owner == address(0x0));\n   require(msg.value >= 1 ether);\n\n   buildings[_id - 1].owner = msg.sender;\n   totalSupply = totalSupply + 1;\n   _safeMint(msg.sender, _id);\n}\n\nfunction transferFrom(address from, address to, uint256 tokenId) public override {\n   require(_isApprovedOrOwner(_msgSender(), tokenId), \"Transfer caller is not apporved or not owner\");\n\n   buildings[tokenId - 1].owner = to;\n   _transfer(from, to, tokenId);\n\n}\n\nfunction safeTransferFrom(address from, address to, uint256 tokenId, bytes memory _data) public override {\nrequire(_isApprovedOrOwner(_msgSender(), tokenId), \"Transfer caller is not apporved or not owner\");\n\n   buildings[tokenId - 1].owner = to;\n   _safeTransfer(from, to, tokenId, _data);\n}\n\nfunction getBuildings() public view returns(Building[] memory){\n    return buildings;\n}\n\nfunction getBuilding(uint256 _id) public view returns(Building memory){\n    return buildings[_id - 1];\n}\n\n}\n",
  "sourcePath": "/Users/akprajapati/Desktop/Akshar/RedSoftware/metaverse-part-1/src/contracts/Land.sol",
  "compiler": {
    "name": "solc",
    "version": "0.8.2+commit.661d1103.Emscripten.clang"
  },
  "schemaVersion": "3.4.8",
  "updatedAt": "2022-07-21T06:59:25.238Z",
  "networkType": "ethereum",
  "devdoc": {
    "kind": "dev",
    "methods": {
      "approve(address,uint256)": {
        "details": "See {IERC721-approve}."
      },
      "balanceOf(address)": {
        "details": "See {IERC721-balanceOf}."
      },
      "getApproved(uint256)": {
        "details": "See {IERC721-getApproved}."
      },
      "isApprovedForAll(address,address)": {
        "details": "See {IERC721-isApprovedForAll}."
      },
      "name()": {
        "details": "See {IERC721Metadata-name}."
      },
      "ownerOf(uint256)": {
        "details": "See {IERC721-ownerOf}."
      },
      "safeTransferFrom(address,address,uint256)": {
        "details": "See {IERC721-safeTransferFrom}."
      },
      "setApprovalForAll(address,bool)": {
        "details": "See {IERC721-setApprovalForAll}."
      },
      "supportsInterface(bytes4)": {
        "details": "See {IERC165-supportsInterface}."
      },
      "symbol()": {
        "details": "See {IERC721Metadata-symbol}."
      },
      "tokenURI(uint256)": {
        "details": "See {IERC721Metadata-tokenURI}."
      },
      "transferFrom(address,address,uint256)": {
        "details": "See {IERC721-transferFrom}."
      }
    },
    "version": 1
  },
  "userdoc": {
    "kind": "user",
    "methods": {},
    "version": 1
  }
}